:020000040800F2
:10000000C014002045010008B11D00081D0F0008A4
:10001000AD1D00088D060008FD5D00080000000011
:10002000000000000000000000000000011F0008A8
:100030005909000800000000B31D0008ED1F00086A
:100040005F0100085F0100085F0100085F01000810
:100050005F0100085F0100085F0100085F01000800
:100060005F0100085F0100085F0100085F010008F0
:100070005F0100085F0100085F0100085F010008E0
:100080005F0100085F0100085F0100085F010008D0
:100090005F0100085F0100085F0100085F010008C0
:1000A0005F0100085F0100085F0100085F010008B0
:1000B0005F0100085F0100085F0100085F010008A0
:1000C0005F0100085F0100085F0100085F01000890
:1000D0005F0100085F0100085F010008455B000840
:1000E0005F0100085F0100085F0100085F01000870
:1000F0005F0100085F0100085F0100085F01000860
:100100005F0100085F0100085F0100085F0100084F
:100110005F0100085F0100085F0100085F0100083F
:100120005F0100085F0100085F0100085F0100082F
:10013000DFF80CD000F05EF900480047A961000824
:10014000C01400200648804706480047FEE7FEE747
:10015000FEE7FEE7FEE7FEE7FEE7FEE7FEE7FEE777
:100160001920000831010008D2B201E000F8012B8B
:10017000491EFBD270470022F6E710B513460A4627
:1001800004461946FFF7F0FF204610BD30B505467E
:100190002A460B4612F8010B13F8014B08B1A04296
:1001A000F8D01CB1002802D06D1CF1E7284630BD04
:1001B000421C10F8011B0029FBD1801A70472DE961
:1001C000FE4F81EA030404F0004421F00041009452
:1001D0004FF0000B23F0004350EA01045ED052EAD6
:1001E00003045BD0C3F30A54C1F30A552C44A4F2B0
:1001F000F3340194A0FB0254C1F3130141F48011C4
:10020000C3F3130343F4801301FB024400FB034ECA
:10021000840A970A44EA815447EA8357A4FB076893
:1002200002958D0A05FB07854FEA932C04FB0C54BD
:100230002705029D4FEA065847EA1637B5EB080531
:100240006EEB070C870E920E47EA811742EA831283
:10025000A7FB0201B6EB0B0164EB00042B0D43EA94
:100260000C335E1844EB1C50DA465146E7FB0201A2
:10027000C5F313044FEA0B3343EA14534FEA043235
:10028000019C43EA0603A4F10C040294009CCDE90E
:1002900000B400F061F803B0BDE8F08F0020014623
:1002A000F9E70EB540F2334102910021CDE900118A
:1002B0000A460B4600F050F803B000BDC1F30A52E5
:1002C00010B5C1F3130140F2FF3341F480119A429B
:1002D00001DA002010BD40F233439A42A2F23342C9
:1002E00003DC524200F019F810BD904010BD30B54B
:1002F0000B46014600202022012409E021FA02F5E4
:100300009D4205D303FA02F5491B04FA02F528447D
:10031000151EA2F10102F1DC30BD202A04DB203AD7
:1003200021FA02F00021704721FA02F3D040C2F115
:100330002002914008431946704710B5141E73F10E
:10034000000408DA401C41F1000192185B411A4395
:1003500001D120F0010010BD2DE9F04D92469B46E1
:1003600011B1B1FA81F202E0B0FA80F22032904687
:1003700000F052F804460F4640EA0A0041EA0B0139
:1003800053465A46084313D0114653EA010019D088
:10039000C8F140025046FFF7C0FF05460E465046E2
:1003A0005946424600F038F8084305D0012004E0E1
:1003B00020463946BDE8F08D0020054346EAE07648
:1003C0002C4337430A986305E40AA0EB0800002297
:1003D000FD0A44EA47540A3002D500200146E9E705
:1003E000010510196941DDE9084500196941BDE8B9
:1003F000F04DA2E7064C074D06E0E06840F001032F
:1004000094E8070098471034AC42F6D3FFF794FE07
:1004100094EF0208B4EF0208202A04DB203A00FA25
:1004200002F1002070479140C2F1200320FA03F34B
:1004300019439040704721B1826842F00102826006
:1004400003E0826822F001028260704700B587B045
:100450004FF4004001F0AEFC01214FF4017001F0B7
:10046000D5FC00208DF81B000620ADF818000320F5
:100470008DF81A0006A9174800F0FCFB00208DF843
:10048000090004904FF460200390002001900120A7
:100490008DF8140000208DF8080001A90E4800F026
:1004A0003FF801210C48FFF7C6FF0B4800F0BCF8ED
:1004B00000BF094800F029F80028FAD1064800F0EA
:1004C000C3F800BF044800F009F80028FAD107B0CB
:1004D00000BD00000008014000240140014600204A
:1004E0008A6802F004020AB1012000E0002070478F
:1004F0000146C86C80B270470246002013680B406A
:100500000BB1012000E000207047014600208A68FE
:1005100002F008020AB1012000E00020704700004C
:1005200030B502460020002350680F4C20400D7962
:100530000C6844EA05242043506090680B4C20402E
:10054000D1E902542C434D7944EA4504204390609C
:10055000D06A20F470000C7C641EE4B2234340EAAD
:100560000350D06230BD0000FFFEF0FFFDF7F1FF49
:10057000F0B504460D4600200021092D11DDE0688C
:10058000A5F10A0606EB4607072606FA07F1884397
:10059000A5F10A0606EB460603FA06F10843E060F9
:1005A0000CE0206905EB4507072606FA07F18843AA
:1005B00005EB450603FA06F108432061072A0FDA26
:1005C000606B561E06EB86071F2606FA07F1884366
:1005D000561E06EB860605FA06F10843606322E024
:1005E0000D2A0FDA206BD61F06EB86071F2606FAA8
:1005F00007F18843D61F06EB860605FA06F1084385
:10060000206310E0E06AA2F10D0606EB86071F26C4
:1006100006FA07F18843A2F10D0606EB860605FAF5
:1006200006F10843E062F0BD816841F00801816095
:10063000704721B1826842F4A002826003E08268C0
:1006400022F4A00282607047816841F00401816059
:100650007047000008B50121102001F0D7FB0020F1
:10066000009010208DF803000120ADF80000032059
:100670008DF802006946044800F0FCFA00220121CE
:10068000014800F0D8FB08BD0010014000BFFEE7A4
:1006900030B5C1B004460D464FF4807101A8FFF794
:1006A0006AFD00F037FA02234FF4FA721CA11DA074
:1006B00000F0FCF928B11CA005F0B6FB012041B008
:1006C00030BD1DA005F0B0FB02234FF4FA7214A157
:1006D0001DA000F0EBF920B11EA005F0A5FB022043
:1006E000EDE722A005F0A0FB2B46224625A101A89C
:1006F00005F0AAFB022342F2107209A101A800F042
:10070000D5F920B124A005F08FFB0320D7E727A05F
:1007100005F08AFB2AA005F087FB0020CFE7000048
:100720004F4B000041540000415420B2E2CAD4CAE9
:10073000A7B0DC0D0A000000415420B2E2CAD4B3D5
:10074000C9B9A60D0A00000041542B43574D4F4430
:10075000453D310041542B43574D4F444520C9E896
:10076000D6C3CAA7B0DC0D0A0000000041542B43D9
:10077000574D4F444520C9E8D6C3B3C9B9A60D0AA1
:100780000000000041542B43574A41503D2225733D
:10079000222C22257322000041542B43574A4150FA
:1007A00020C9E8D6C3CAA7B0DC0D0A0041542B43C8
:1007B000574A415020C9E8D6C3B3C9B9A60D0A00AB
:1007C000C1ACBDD3C8C8B5E3B3C9B9A60D0A000012
:1007D00030B5C1B004460D464FF4807101A8FFF753
:1007E000CAFC022341F2883222A123A000F05EF964
:1007F00001280DD123A005F017FB2AA12CA0FFF79B
:1008000047FF28B12BA005F00FFB012041B030BD00
:100810002B4622462DA101A805F016FB02234FF41A
:10082000FA6214A101A800F041F9012804D12EA018
:1008300005F0FAFA0220E9E702234FF4FA720DA15B
:100840002FA000F033F9012804D131A005F0ECFA13
:100850000320DBE702234FF4FA7234A134A000F046
:1008600025F9012804D135A005F0DEFA0420CDE7F2
:100870000020CBE74F4B000041542B43574A4150D7
:100880003F000000CEB4BCECB2E2B5BDC1ACBDD3FC
:10089000C8C8B5E30D0AD6D8C1ACD6D02E2E2E0DC1
:1008A0000A00000077786E3132333435363738003D
:1008B00043430000CEB4BCECB2E2B5BDC8C8B5E35A
:1008C000A3ACCDCBB3F60D0A0000000041542B437E
:1008D000495053544152543D22544350222C222516
:1008E00073222C2564000000C1ACBDD3B7FECEF14D
:1008F000C6F7CAA7B0DCA3ACCDCBB3F60D0A000097
:1009000041542B4349504D4F44453D3100000000B8
:10091000BFAAC6F4CDB8B4ABC4A3CABDCAA7B0DCE5
:10092000A3ACCDCBB3F60D0A000000003E000000E2
:1009300041542B43495053454E440000BDF8C8EB89
:10094000CDB8B4ABC4A3CABDCAA7B0DCA3ACCDCBF1
:10095000B3F60D0A00000000704770B54FF47A73CB
:1009600000FB03F1002247E000BF00BF00BF00BF53
:1009700000BF00BF00BF00BF00BF00BF00BF00BF7F
:1009800000BF00BF00BF00BF00BF00BF00BF00BF6F
:1009900000BF00BF00BF00BF00BF00BF00BF00BF5F
:1009A00000BF00BF00BF00BF00BF00BF00BF00BF4F
:1009B00000BF00BF00BF00BF00BF00BF00BF00BF3F
:1009C00000BF00BF00BF00BF00BF00BF00BF00BF2F
:1009D00000BF00BF00BF00BF00BF00BF00BF00BF1F
:1009E00000BF00BF00BF00BF00BF00BF00BF00BF0F
:1009F00000BF00BF00BF00BF13460C46491E62F196
:100A000000020026744073401C43ADD170BD47E026
:100A100000BF00BF00BF00BF00BF00BF00BF00BFDE
:100A200000BF00BF00BF00BF00BF00BF00BF00BFCE
:100A300000BF00BF00BF00BF00BF00BF00BF00BFBE
:100A400000BF00BF00BF00BF00BF00BF00BF00BFAE
:100A500000BF00BF00BF00BF00BF00BF00BF00BF9E
:100A600000BF00BF00BF00BF00BF00BF00BF00BF8E
:100A700000BF00BF00BF00BF00BF00BF00BF00BF7E
:100A800000BF00BF00BF00BF00BF00BF00BF00BF6E
:100A900000BF00BF00BF00BF00BF00BF00BF00BF5E
:100AA000011EA0F10100B3D1704700002DE9F04113
:100AB00004460D4617461E462046FFF779FB804642
:100AC00000201249A1F808044FF481610F48FFF794
:100AD00052FB00BF3CB11FFA88F1204605F07AF8BE
:100AE0000BA005F099F85DB13A462946074800F099
:100AF000AAF828B100200549A1F80804BDE8F08152
:100B0000701EC0B2061EE5D10120F7E7AE0000203E
:100B10000D0A000010B504A005F07EF84FF4FA703D
:100B2000FFF71BFF10BD00002B2B2B0051B18200E3
:100B3000A2F1C042126842F001038200A2F1C04259
:100B4000136009E08200A2F1C0421268034B1A4010
:100B50008300A3F1C0431A6070470000FEFF0F003E
:100B6000D0E901121143C26811430269114342697D
:100B7000114382691143C2691143026A1143426AF7
:100B80001143826A1143C26A1143026B1143026826
:100B90009200A2F1C0421160816808290BD101685E
:100BA0008900A1F1C041096841F040020168890053
:100BB000A1F1C0410A60416B0968426B526841EA89
:100BC0000211426B926841EA0221426B928941EA2A
:100BD0000241426B128A41EA0251426B127D41EAA4
:100BE0000261426B926911430268521C9200A2F1A9
:100BF000C0421160C16AB1F5804F1BD1816B096899
:100C0000826B526841EA0211826B926841EA0221CA
:100C1000826B128A41EA0251826B127D41EA0261C3
:100C2000826B9269114302689200A2F1C042C2F83D
:100C3000041107E06FF0704201688900A1F1C04122
:100C4000C1F80421704770B505460E46144602E00F
:100C50000120FFF782FE201EA4F1010405D03146D9
:100C60002846FFF793FA0028F2D031462846FFF7CE
:100C70008DFA70BD2DE9F0410246002500260020C6
:100C800000230024002791F803C00CF00F0591F811
:100C900003C00CF0100CBCF1000F03D091F802C09F
:100CA0004CEA050591F800C0BCF1000F31D0146882
:100CB00000202BE04FF0010C0CFA00F3B1F800C05B
:100CC0000CEA03069E4220D183004FF00F0C0CFA71
:100CD00003F7BC4305FA03FC4CEA040491F803C093
:100CE000BCF1280F06D14FF0010C0CFA00FCC2F841
:100CF00014C00AE091F803C0BCF1480F05D14FF0D1
:100D0000010C0CFA00FCC2F810C0401C0828D1D31A
:100D10001460B1F800C0BCF1FF0F34DD546800204E
:100D20002EE000F1080C4FF0010808FA0CF3B1F8BE
:100D300000C00CEA03069E4221D183004FF00F0C45
:100D40000CFA03F7BC4305FA03FC4CEA040491F8DF
:100D500003C0BCF1280F05D100F1080C08FA0CF80B
:100D6000C2F8148091F803C0BCF1480F07D100F11C
:100D7000080C4FF0010808FA0CF8C2F81080401C6B
:100D80000828CED35460BDE8F0810000F0B50A46D3
:100D9000002300240021002500F00046B6F1004F9A
:100DA00002D11D4EF16901E01B4E7168C0F303458D
:100DB00083B200F44016B6F5401F08D121F07061EF
:100DC000154E766826F07066134F7E6012E000F4D0
:100DD0008016B6F5801F06D1032606FA05F4A14356
:100DE00041F0706106E0460D360103FA06F6B143A4
:100DF00041F0706122B1460D360103FA06F6314327
:100E000000F00046B6F1004F02D1034EF16101E05F
:100E1000014E7160F0BD000000000140024600205C
:100E200093680B400BB1012000E000207047416146
:100E30007047016170470AB1016100E0416170478C
:100E40000EB50523012211461348FFF791FB01213E
:100E50001148FFF7EEFB00BF02210F48FFF74CFBE4
:100E60000028F9D00C48FFF743FB0C4908800846DE
:100E700002880BA10D4804F0E7FF00200B49102267
:100E80004FF4A073CDE900210290F022502100F030
:100E9000ABFD024800880EBD002401401E0000206A
:100EA000CDC1C8C0CAAAB6C83A2564004A0000200D
:100EB0000EB50023012202211348FFF759FB01213F
:100EC0001148FFF7B6FB00BF02210F48FFF714FBE4
:100ED0000028F9D00C48FFF70BFB0C494880084666
:100EE00042880BA10C4804F0AFFF00200A491022F1
:100EF0004FF4A073CDE900210290F022642100F0AC
:100F000073FD024840880EBD002401401E000020F1
:100F1000D3EAC1BF3A2564004A00002000BFFEE7C3
:100F200010B50121084600F071FF01210148FFF7CB
:100F30002DFF10BD0002300008B50121042000F093
:100F400065FF0020009004208DF803000120ADF81B
:100F5000000069460148FFF78DFE08BD000801400A
:100F600010B501210C48FFF759FF012811D11420B9
:100F7000FFF7F3FC01210848FFF750FF012808D1D3
:100F800000BF01210448FFF749FF0128F9D00120E3
:100F900010BD0020FCE700000008014070B50446C9
:100FA000002617480588408845431548808846F63E
:100FB0000401884216D112488079012812D10020FC
:100FC0000F4988712A2048812B20888100210846FA
:100FD00000F03EFB01200A4988712B2048812A201D
:100FE000888103E00021084600F032FB00F0A0FEFB
:100FF000002602E003480480761CAE42FAD370BD9E
:101000003C0000200008006C10B50446002C73D191
:1010100079498871F02008804FF4A0704880084614
:10102000808849F24131884211D07348808849F262
:10103000864188420BD07048808846F60401884279
:1010400005D06D48808845F21031884220D12C208F
:10105000694908812A2048812B2088810846808898
:1010600046F6040188420BD06348808845F210316F
:10107000884205D06048808849F28641884206D17E
:101080004FF4A0705C4908804FF4F0704880AEE0E7
:101090005948808845F21051884210D14FF43050A1
:1010A000554908814FF4285048814FF42C508881CD
:1010B0004FF4F07008804FF44870488097E04E4835
:1010C000808841F6631188420DD12C204A4908815D
:1010D0002B2048812A2088814FF4F07008804FF43B
:1010E0004870488083E022204349088120204881BD
:1010F000212088817BE0FFE701203F4988714FF480
:10110000A0700880F02048800846808849F241316C
:1011100088420BD03848808849F28641884205D001
:101120003548808845F21031884207D12C20324959
:1011300008812A2048812B2088813FE02E48808822
:1011400046F60401884207D12C202B4908812B2028
:1011500048812A20888131E02748808845F2105153
:10116000884210D14FF43050234908814FF4285061
:1011700048814FF42C5088814FF4487008804FF418
:10118000F07048801AE01C48808841F6631188425C
:101190000DD12C20184908812A2048812B208881D4
:1011A0004FF4487008804FF4F070488006E0222029
:1011B0001149088121204881202088810E4880889B
:1011C00046F6040188420BD00B48808845F2103166
:1011D000884205D00848808849F28641884206D175
:1011E0004FF4F070044908804FF4A070488000204C
:1011F00000F0B2F810BD00003C00002030B50446FD
:101200000D462946204600F023FA00F091FD0248E1
:1012100000880249088030BD1A0000200008006CD8
:101220002DE9F04306460F4690460024454603202C
:10123000A0EB48093CE07A1B91B2321990B2FFF75B
:10124000DDFF3A1B91B2721990B2FFF7D7FF3A193E
:1012500091B2721990B2FFF7D1FF7A1991B2321997
:1012600090B2FFF7CBFF7A1991B2321B90B2FFF721
:10127000C5FF3A1991B2721B90B2FFF7BFFF7A1BFC
:1012800091B2321B90B2FFF7B9FF3A1B91B2721BB9
:1012900090B2FFF7B3FF641CB9F1000F03DAA000AE
:1012A000801D814404E0601B80000A3081446D1E73
:1012B000AC42C0DDBDE8F08370B505460E4614466D
:1012C0003146284600F0C4F900F032FD01480480A0
:1012D00070BD00000008006C08B50348008800904D
:1012E000BDF8000008BD00000008006C10B5044601
:1012F000204600F011FD0520FFF789FBFFF7ECFF0A
:1013000010BD00002DE9F0470446BE2000F004FDAA
:10131000052000F0F5FC2046FEF7C3FF07464FF01E
:1013200066320C4BFEF74BFF0546FEF7C7FF1FFA70
:1013300080F9484600F0E4FC012000F0E1FCFF20C9
:1013400000F0DEFC002000F0DBFC002000F0D8FC08
:10135000BDE8F08766660440F0B505460024002726
:10136000BA48807901280BD1B848808846F6040134
:10137000884205D0B548808841F66311884208D17B
:10138000B2488079F0B9B148808841F6631188424B
:1013900018D1082D15D2DFE805F00406080A0C0E56
:1013A000101206250DE007250BE0042509E00525B0
:1013B00007E0012505E0002503E0032501E0022503
:1013C00000BF00BFA148808849F2413188421DD04A
:1013D0009E48808849F28641884217D09B48808881
:1013E00046F60401884211D09848808845F21031B1
:1013F00088420BD09548808845F21051884205D02C
:101400009248808841F6631188427DD1082D1CD214
:10141000DFE805F00406090C0F12151800BF14E0F0
:1014200044F0800411E044F040040EE044F0C004B5
:101430000BE044F0200408E044F0600405E044F0D0
:10144000A00402E044F0E00400BF00BF7F488088B1
:1014500045F21051884202D14FF4585700E0362728
:101460007A48808845F2103188420DD077488088CC
:1014700045F21051884207D07448808841F66311C4
:10148000884201D044F008047048808846F6040180
:10149000884201D144F002042146384600F052FC53
:1014A0006A48808841F6631188421DD004F020000C
:1014B00068B16648008865494988884214DA6348FB
:1014C0000688408861490880084646800CE05F48ED
:1014D00000885E494988884206DD5C480688408865
:1014E0005A490880084646805848808845F210517D
:1014F000884254D15549488900F00EFC002000F084
:10150000FFFB5249498900E078E0491C88B200F0AD
:1015100003FC002000F0F4FB4C494989891C88B287
:1015200000F0FAFB49490988491EC1F30F2000F079
:10153000E7FB46494989C91C88B200F0EDFB4349E5
:101540000978491EC8B200F0DBFB4049888900F0E9
:10155000E3FB002000F0D4FB3C498989491C88B298
:1015600000F0DAFB002000F0CBFB38498989891CA8
:1015700088B200F0D1FB35494988491EC1F30F20DC
:1015800000F0BEFB31498989C91C88B200F0C4FB58
:101590002E498978491EC8B200F0B2FB55E02B49AC
:1015A000488900F0B9FB002000F0AAFB002000F001
:1015B000A7FB26490988491EC1F30F2000F0A0FBB4
:1015C00022490978491EC8B200F09AFB1F49888950
:1015D00000F0A2FB002000F093FB002000F090FB45
:1015E0001A494988491EC1F30F2000F089FB1749A9
:1015F0008978491EC8B200F083FB26E0082D1CD272
:10160000DFE805F004070A0D0F12151844F0300446
:1016100013E044F0100410E044F020040DE000BF9B
:101620000BE044F0380408E044F0280405E044F0FE
:10163000180402E044F0080400BF00BF032744F48C
:1016400080542146384600F07DFBF0BD3C00002070
:1016500030B504460D468148808849F241318842C0
:1016600005D07E48808845F21031884214D17B49EC
:10167000488900F051FB201200F042FBE0B200F07C
:101680003FFB7649888900F047FB281200F038FBC1
:10169000E8B200F035FBE0E07048808849F286410E
:1016A00088422ED16D49488900F036FB201200F0A7
:1016B00027FBE0B200F024FB68490988491EC1F30A
:1016C0000F2000F01DFB65490978491EC8B200F0E3
:1016D00017FB6249888900F01FFB281200F010FBFD
:1016E000E8B200F00DFB5D494988491EC1F30F20A7
:1016F00000F006FB59498978491EC8B200F000FB8A
:10170000ABE05648808846F6040188421DD1534814
:101710008079012804D151480088401E001B84B202
:101720004E49488900F0F8FA201200F0E9FAE0B2D8
:1017300000F0E6FA4949888900F0EEFA281200F034
:10174000DFFAE8B200F0DCFA87E04448808841F62E
:101750006311884247D141488079A8B93F48008841
:10176000401E001B84B23D49488900F0D5FA002094
:1017700000F0C6FA002000F0C3FA201200F0C0FA10
:10178000E0B200F0BDFA16E03449488900F0C4FA2E
:10179000201200F0B5FAE0B200F0B2FA2F49098841
:1017A000491EC1F30F2000F0ABFA2C490978491EFD
:1017B000C8B200F0A5FA2949888900F0ADFA2812CC
:1017C00000F09EFAE8B200F09BFA24494988491ECD
:1017D000C1F30F2000F094FA20498978491EC8B25D
:1017E00000F08EFA39E01D48808845F21051884299
:1017F00020D11A49488900F08FFA201200F080FAAF
:1018000016494989491C88B200F086FAE0B200F016
:1018100077FA1249888900F07FFA281200F070FAEE
:101820000E498989491C88B200F076FAE8B200F0C6
:1018300067FA12E009488079012804D10748008836
:10184000401E001B84B205494889214600F07AFAFF
:1018500002498889294600F075FA30BD3C00002015
:101860002DE9FF4F81B080460E46DDE90E74B34688
:101870002046E31704EB5373DB1021464FEAE47C68
:1018800004EB5C7C4FEAEC0CA4EBCC0CBCF1000F3D
:1018900002D04FF0010C01E04FF0000C63442246EF
:1018A00004EBD27C4FEA6C0C03FB0CF3DBB200932D
:1018B000A7F12000C7B2002555E00C2C07D107EB9B
:1018C00047002B4901EB800010F8059014E0102C24
:1018D00005D1284800EB071010F805900CE0182CF3
:1018E00007D107EBC700244901EB800010F80590F1
:1018F00002E005B0BDE8F08F4FF0000A2DE009F0DE
:10190000800028B131464046049AFFF7D5FC06E036
:10191000109820B931464046039AFFF7CDFC4FEAB4
:1019200049604FEA1069701C86B214484088B04282
:1019300000DCDEE7A6EB0B00A0420AD15E4608F110
:1019400001001FFA80F80D480088404500DCD0E710
:1019500006E00AF1010000F0FF0ABAF1080FCEDB41
:1019600000BF681CC5B200988542A6DB00BFC0E777
:101970002065000894690008846F00083C0000207E
:101980002DE9F84F04460F46154698460A9E4FF03B
:101990000009CA46A3460020009000BF20E04FF097
:1019A000000917E07078317840EA0120009039464C
:1019B0002046009AFFF780FC601C84B20BEB050008
:1019C000A04202DC5C46781C87B2B61C09F101001B
:1019D0001FFA80F9A945E5DB0AF101001FFA80FA38
:1019E000C245DCDBBDE8F88F2DE9FF4F84B08046AF
:1019F0008946DDE9117A08F0FF000390069840441B
:101A000080B206900798484480B2079065E19AF842
:101A10000000A02870DD0698804505DBDDF80C800D
:101A200009EB07001FFA80F90798814500DB59E1AF
:101A30000C2F5DD1002558E005EB850000EBC500BB
:101A4000AA4911F810009AF8001088424BD105EB12
:101A5000850000EBC500A54901EB400040789AF8ED
:101A6000011088423FD100243AE005EB850000EBED
:101A7000C5009E4901EB4000801C6100491C415C8F
:101A800005EB850000EBC500984A02EB4000801C86
:101A900010F8140041EA002B00261DE00BFA06F0B6
:101AA00000F4004050B109EB040291B208EB0602C9
:101AB00090B28F4A1288FFF7FFFB0BE0139848B9EA
:101AC00009EB040291B208EB060290B2894A12882F
:101AD000FFF7F2FB701CC6B2BE42DFDB601CC4B273
:101AE000BC42C2DB03E0681C85B2322DA4DBC9E036
:101AF000102F56D1002551E0CBE005EB05107E49B3
:101B000011F810009AF80010884245D105EB051035
:101B1000794901EB400040789AF8011088423BD1A6
:101B2000002436E005EB0510734901EB4000801CF2
:101B30006100491C415C05EB05106F4A02EB400057
:101B4000801C10F8140041EA002B00261DE00BFA5F
:101B500006F000F4004050B109EB040291B208EB2A
:101B6000060290B2624A1288FFF7A6FB0BE01398B8
:101B700048B909EB040291B208EB060290B25D4A43
:101B80001288FFF799FB701CC6B2BE42DFDB601CF7
:101B9000C4B2BC42C6DB03E0681C85B2322DACDBAC
:101BA00070E0182F6ED1002569E005EB850000EB91
:101BB0004510524911F810009AF8001088425CD183
:101BC00005EB850000EB45104C4901EB40004078E7
:101BD0009AF80110884250D100244BE005EB8500B3
:101BE00000EB4510454901EB4000801C04EB44012B
:101BF000405C020405EB850000EB45103F4901EB1A
:101C00004000801C04EB4401491C405C42EA002176
:101C100005EB850000EB4510384A02EB4000801CC4
:101C200004EB4402921C805C41EA000B00261DE09C
:101C30000BFA06F000F4000050B109EB040291B277
:101C400008EB060290B22A4A1288FFF735FB0BE038
:101C5000139848B909EB040291B208EB060290B25E
:101C6000244A1288FFF728FB701CC6B2BE42DFDB95
:101C7000601CC4B2BC42B1DB03E0681C85B2322DEB
:101C800093DB00BF08EB07001FFA80F80AF1020A95
:101C900023E00698804505DBDDF80C8009EB0700A2
:101CA0001FFA80F90798814500DB1BE09AF80010C5
:101CB0001398CDE9001702900D4803880D4802885B
:101CC00049464046FFF7CCFD384607EBD07108EB9C
:101CD00061011FFA81F80AF1010A9AF80000002850
:101CE0007FF495AE00BF08B0BDE8F08FE07C00083F
:101CF0001A0000201C000020F481000898880008C9
:101D000001B5BDF800000090BDF800000149088051
:101D100008BD00000008006C01B5BDF8000000908F
:101D2000BDF800000149088008BD0000FE07006CF6
:101D30000248008902490880704700003C000020EA
:101D4000FE07006C024A1080921C11807047000050
:101D5000FE07006C08B50121402000F057F8002074
:101D6000009010208DF803003C20ADF80000032007
:101D70008DF8020069460C48FEF77CFF0122042121
:101D80000948FFF758F8012208210748FFF753F8E0
:101D9000012210210448FFF74EF8012220210248B9
:101DA000FFF749F808BD00000018014000BFFEE73A
:101DB0007047704701460020034A506820F44040B5
:101DC00008435060704700000010024029B1064AE5
:101DD00052690243044B5A6104E0034A5269824348
:101DE000014B5A61704700000010024029B1064AB9
:101DF000D2690243044BDA6104E0034AD2698243A8
:101E0000014BDA61704700000010024029B1064A18
:101E100092690243044B9A6104E0034A9269824347
:101E2000014B9A61704700000010024030B500215C
:101E30000022002400232D4D6D6805F00C0121B116
:101E4000042905D0082923D105E0294D056022E0A9
:101E5000274D05601FE0254D6D6805F47012234D78
:101E60006D6805F48034022505EB92421CB9214DC2
:101E7000554305600BE01D4D6D6805F400351DB13F
:101E80001C4D5543056002E0194D5543056002E0C5
:101E9000174D056000BF00BF144D6D6805F0F001DF
:101EA0000909154D6B5C0568DD4045600F4D6D6897
:101EB00005F4E061090A104D6B5C4568DD40856002
:101EC0000A4D6D6805F46051C90A0B4D6B5C45689D
:101ED000DD40C560054D6D6805F44041890B074D37
:101EE0006B5CC568B5FBF3F5056130BD00100240C1
:101EF00000127A0000093D0022000020320000207C
:101F0000704710B500F002F810BD00000CB50020BD
:101F1000019000903348006840F4803031490860F7
:101F200000BF3048006800F4003000900198401C69
:101F30000190009818B90198B0F5A06FF1D1294827
:101F4000006800F4003010B10120009001E0002092
:101F500000900098012843D12348006840F0100009
:101F6000214908600846006820F003000860084620
:101F7000006840F0020008601A484068194948604B
:101F80000846406848600846406840F48060486001
:101F90000846406820F47C1048600846406840F4D9
:101FA000E81048600846006840F08070086000BF94
:101FB0000C48006800F000700028F9D0094840681B
:101FC00020F00300074948600846406840F00200DE
:101FD000486000BF0348406800F00C000828F9D1B1
:101FE0000CBD0000001002400020024007480068BD
:101FF000401C0649086006480068401C0449086007
:1020000004480068401C0349086070470000002035
:10201000080000201000002010B51348006840F0B0
:1020200001001149086008464068104908400E49FF
:102030004860084600680E4908400B490860084699
:10204000006820F4802008600846406820F4FE0004
:1020500048604FF41F008860FFF753FF4FF00060A7
:102060000449086010BD0000001002400000FFF8A5
:10207000FFFFF6FE08ED00E070B501460A46501E6F
:10208000B0F1807F01D301201BE0501E4FF0E02310
:10209000586158170F23002804DB1C07250E0B4C32
:1020A000255406E01C07260E094C00F00F052D1FD5
:1020B000665500BF00204FF0E023986107201861AB
:1020C0000020012801D100BFFEE770BD00E400E060
:1020D00018ED00E000B59FB000201E90012108021D
:1020E000FFF774FE01214FF4B470FFF78FFE01205B
:1020F000ADF8740010208DF8770003208DF876007D
:102100001DA9FE48FEF7B6FD4CF23370ADF8740021
:1021100018208DF8770003208DF876001DA9F84867
:10212000FEF7A8FD4FF68070ADF8740018208DF80A
:10213000770003208DF876001DA9F248FEF79AFD7E
:1021400041F20100ADF8740018208DF877000320EB
:102150008DF876001DA9EC48FEF78CFD0120079054
:10216000002008900F20099000200A900B900C90FE
:102170000D900090019003200290002003900490A5
:102180000590069006200E9000200F9010901020D1
:1021900011900020129014901390159016904FF407
:1021A00080501790002018904FF480401990002024
:1021B0001A9007A81B90CDF870D00EA8FEF7D0FC9F
:1021C00001210620FEF7B2FC3220FEF7C6FB0121FA
:1021D0000020FFF7B7FD3220FEF7BFFB0020FFF71E
:1021E00085F8CA49888008468088FF280FDB0846A2
:1021F00080884FF6FF71884209D0C4488088B0F5C6
:10220000134F04D0C1488088B0F5144F7ED1D3203D
:10221000FFF782FDFFF760F8BC498880FFF75CF8A4
:10222000BA498880FFF758F8B849888008468088FE
:102230004FF6FF7101EA0020B4498880FFF74CF89F
:10224000B24989880843B14988800846808849F2A4
:10225000413188425AD0AD48808849F2864188424F
:10226000F8D0BF20FFF758FDFFF736F8A749888060
:10227000FFF732F8A5498880FFF72EF8A349888038
:10228000FFF72AF8A1498880084680884FF6FF7139
:1022900001EA00209D498880FFF71EF89B49898844
:1022A00008439A4988800846808846F60401884297
:1022B0007AD0D420FFF730FDFFF70EF893498880DD
:1022C000FFF70AF891498880FFF706F88F49888060
:1022D000084680884FF6FF7101EA00208B4988800C
:1022E000FEF7FAFF894989880843884988800846AB
:1022F000808845F21031884256D04FF45A40FFF79B
:102300000BFDFEF7E9FF8149888000E04CE04FF4C7
:102310005B40FFF701FDFEF7DFFF7C498880084640
:1023200080884FF6FF7101EA0020784988804FF4D9
:102330005C40FFF7F1FCFEF7CFFF74498988084342
:102340007249888008468088B0F5004F02D145F276
:10235000105088806D48808845F21051884223D003
:10236000A120FFF7D9FCFEF7B7FF68498880FEF788
:10237000B3FF66498880084680884FF6FF7101EAFE
:10238000002062498880FEF7A7FF604989880843DA
:102390005E4988800846808845F26171884203D191
:1023A00041F66310594988805848808849F2413184
:1023B000884211D05548808845F2103188420BD0B0
:1023C0005248808845F21051884205D04F48808895
:1023D00041F6631188421DD14D48006820F00F007E
:1023E0004FF02041C1F81C010846D0F81C0120F430
:1023F0007060C1F81C010846D0F81C0140F00300D1
:10240000C1F81C010846D0F81C0140F40070C1F866
:102410001C0128E03D48808846F60401884205D02A
:102420003A4880884CF2055188421CD138480068EF
:1024300020F00F004FF02041C1F81C010846D0F8F1
:102440001C0120F47060C1F81C010846D0F81C0182
:1024500040F00A00C1F81C010846D0F81C0140F405
:102460004060C1F81C012948808849F24131884206
:102470007ED1CF20FFF750FC0020FFF741FCC120A8
:10248000FFF73EFC3020FFF73BFCED20FFF744FC5C
:102490006420FFF735FC0320FFF732FC1220FFF722
:1024A0002FFC8120FFF72CFCE820FFF735FC85206E
:1024B000FFF726FC1020FFF723FC7A20FFF720FC13
:1024C000CB20FFF729FC3920FFF71AFC2C20FFF75F
:1024D00017FC0020FFF714FC3420FFF711FC02204A
:1024E000FFF70EFCF720FFF717FC2020FFF708FC92
:1024F000EA20FFF711FC00200CE00000000C014076
:102500000014014000180140002001403C00002060
:102510001C0100A0FFF7F4FB0020FFF7F1FBC02037
:10252000FFF7FAFB1B20FFF7EBFBC120FFF7F4FBE3
:102530000120FFF7E5FBC520FFF7EEFB3020FFF79A
:10254000DFFB3020FFF7DCFBC720FFF7E5FBB72000
:10255000FFF7D6FB3620FFF7DFFB4820FFF7D0FB65
:102560003A20FFF7D9FB5520FFF7CAFBB12000E066
:10257000A5E0FFF7D1FB0020FFF7C2FB1A20FFF711
:10258000BFFBB620FFF7C8FB0A20FFF7B9FBA2206C
:10259000FFF7B6FBF220FFF7BFFB0020FFF7B0FB11
:1025A0002620FFF7B9FB0120FFF7AAFBE020FFF789
:1025B000B3FB0F20FFF7A4FB2A20FFF7A1FB282085
:1025C000FFF79EFB0820FFF79BFB0E20FFF798FB11
:1025D0000820FFF795FB5420FFF792FBA920FFF797
:1025E0008FFB4320FFF78CFB0A20FFF789FB0F20AE
:1025F000FFF786FB0020FFF783FB0020FFF780FB3F
:102600000020FFF77DFB0020FFF77AFBE120FFF7BA
:1026100083FB0020FFF774FB1520FFF771FB1720E9
:10262000FFF76EFB0720FFF76BFB1120FFF768FB3E
:102630000620FFF765FB2B20FFF762FB5620FFF714
:102640005FFB3C20FFF75CFB0520FFF759FB1020E8
:10265000FFF756FB0F20FFF753FB3F20FFF750FB20
:102660003F20FFF74DFB0F20FFF74AFB2B20FFF722
:1026700053FB0020FFF744FB0020FFF741FB012044
:10268000FFF73EFB3F20FFF73BFB2A20FFF744FB11
:102690000020FFF735FB0020FFF732FB0020FFF79B
:1026A0002FFBEF20FFF72CFB1120FFF735FB7820E5
:1026B000FEF753F92920FFF72FFB03F0E9B9FE4895
:1026C000808849F2864188427ED1F220FFF724FBC0
:1026D0001820FFF715FBA320FFF712FB1220FFF7CE
:1026E0000FFB0220FFF70CFBB220FFF709FB1220C3
:1026F000FFF706FBFF20FFF703FB1020FFF700FBAF
:102700000020FFF7FDFAF820FFF706FB2120FFF776
:10271000F7FA0420FFF7F4FAF920FFF7FDFA00209A
:10272000FFF7EEFA0820FFF7EBFA3620FFF7F4FA8E
:102730000820FFF7E5FA3A20FFF7EEFA0520FFF749
:10274000DFFAB420FFF7E8FA0120FFF7D9FAB62044
:10275000FFF7E2FA0220FFF7D3FA2220FFF7D0FAC0
:10276000C120FFF7D9FA4120FFF7CAFAC520FFF7C9
:10277000D3FA0020FFF7C4FA0720FFF7C1FAE020E0
:10278000FFF7CAFA0F20FFF7BBFA1F20FFF7B8FACE
:102790001C20FFF7B5FA0C20FFF7B2FA0F20FFF765
:1027A000AFFA0820FFF7ACFA4820FFF7A9FA982003
:1027B000FFF7A6FA3720FFF7A3FA0A20FFF7A0FADF
:1027C0001320FFF79DFA00E045E00420FFF798FA98
:1027D0001120FFF795FA0D20FFF792FA0020FFF77E
:1027E0008FFAE120FFF798FA0F20FFF789FA3220DD
:1027F000FFF786FA2E20FFF783FA0B20FFF780FA07
:102800000D20FFF77DFA0520FFF77AFA4720FFF742
:1028100077FA7520FFF774FA3720FFF771FA062070
:10282000FFF76EFA1020FFF76BFA0320FFF768FA44
:102830002420FFF765FA2020FFF762FA0020FFF757
:102840005FFA1120FFF768FA7820FEF786F8292052
:10285000FFF762FA31E79848808846F6040188421B
:102860007ED11120FFF758FA1420FEF776F8D02019
:10287000FFF752FA0720FFF743FA4220FFF740FA2A
:102880001D20FFF73DFAD120FFF746FA0020FFF7A1
:1028900037FA1A20FFF734FA0920FFF731FAD2206D
:1028A000FFF73AFA0120FFF72BFA2220FFF728FA68
:1028B000C020FFF731FA1020FFF722FA3B20FFF784
:1028C0001FFA0020FFF71CFA0220FFF719FA112067
:1028D000FFF716FAC520FFF71FFA0320FFF710FADB
:1028E000C820FFF719FA0020FFF70AFA2520FFF7A2
:1028F00007FA2120FFF704FA0520FFF701FA00206C
:10290000FFF7FEF90A20FFF7FBF96520FFF7F8F95A
:102910002520FFF7F5F97720FFF7F2F95020FFF7B0
:10292000EFF90F20FFF7ECF90020FFF7E9F9F820A5
:10293000FFF7F2F90120FFF7E3F9FE20FFF7ECF9CA
:102940000020FFF7DDF90220FFF7DAF92020FFF77A
:10295000E3F93620FFF7E0F90820FFF7D1F900E0AE
:102960002AE03A20FFF7D8F95520FFF7C9F92B20C4
:10297000FFF7D2F90020FFF7C3F90020FFF7C0F9F5
:102980000120FFF7BDF93F20FFF7BAF92A20FFF732
:10299000C3F90020FFF7B4F90020FFF7B1F90120D7
:1029A000FFF7AEF9DF20FFF7ABF97820FDF7D5FF91
:1029B0002920FFF7B1F980E63F48808845F21031C1
:1029C000884240F07C87ED20FFF7A6F90120FFF751
:1029D00097F9FE20FFF794F9EE20FFF79DF9DE202E
:1029E000FFF78EF92120FFF78BF9F120FFF794F91B
:1029F0000120FFF785F9DF20FFF78EF91020FFF7A0
:102A00007FF9C420FFF788F98F20FFF779F9C620F6
:102A1000FFF782F90020FFF773F9E220FFF770F962
:102A2000E220FFF76DF9E220FFF76AF9BF20FFF718
:102A300073F9AA20FFF764F9B020FFF76DF90D20B4
:102A4000FFF75EF90020FFF75BF90D20FFF758F95B
:102A50000020FFF755F91120FFF752F90020FFF78A
:102A60004FF91920FFF74CF90020FFF749F9212011
:102A7000FFF746F90020FFF743F92D20FFF740F953
:102A80000020FFF73DF93D20FFF73AF90020FFF75E
:102A900037F95D20FFF734F90020FFF731F95D20A9
:102AA000FFF72EF90020FFF72BF9B120FFF734F9DB
:102AB0008020FFF725F901E03C0000200020FFF70F
:102AC0001FF98B20FFF71CF90020FFF719F996205A
:102AD000FFF716F90020FFF713F9B220FFF71CF9F2
:102AE0000020FFF70DF90020FFF70AF90220FFF799
:102AF00007F90020FFF704F90320FFF701F9002090
:102B0000FFF7FEF8B320FFF707F90020FFF7F8F80A
:102B10000020FFF7F5F80020FFF7F2F80020FFF79C
:102B2000EFF80020FFF7ECF80020FFF7E9F80020AD
:102B3000FFF7E6F80020FFF7E3F80020FFF7E0F8E2
:102B40000020FFF7DDF80020FFF7DAF80020FFF79C
:102B5000D7F80020FFF7D4F80020FFF7D1F80020C5
:102B6000FFF7CEF80020FFF7CBF80020FFF7C8F8FA
:102B70000020FFF7C5F80020FFF7C2F80020FFF79C
:102B8000BFF80020FFF7BCF80020FFF7B9F80020DD
:102B9000FFF7B6F80020FFF7B3F8B420FFF7BCF852
:102BA0008B20FFF7ADF80020FFF7AAF89620FFF77B
:102BB000A7F80020FFF7A4F8A120FFF7A1F8002054
:102BC000FFF79EF8B520FFF7A7F80220FFF798F867
:102BD0000020FFF795F80320FFF792F80020FFF799
:102BE0008FF80420FFF78CF80020FFF789F8B62053
:102BF000FFF792F80020FFF783F80020FFF780F836
:102C0000B720FFF789F80020FFF77AF80020FFF7D8
:102C100077F83F20FFF774F80020FFF771F85E2087
:102C2000FFF76EF80020FFF76BF86420FFF768F8F5
:102C30000020FFF765F88C20FFF762F80020FFF70F
:102C40005FF8AC20FFF75CF80020FFF759F8DC20B4
:102C5000FFF756F80020FFF753F87020FFF750F801
:102C60000020FFF74DF89020FFF74AF80020FFF70B
:102C700047F8EB20FFF744F80020FFF741F8DC208D
:102C8000FFF73EF80020FFF73BF8B820FFF744F8C5
:102C90000020FFF735F80020FFF732F80020FFF79B
:102CA0002FF80020FFF72CF80020FFF729F800206C
:102CB000FFF726F80020FFF723F80020FFF720F8A1
:102CC000BA20FFF729F82420FFF71AF80020FFF7B1
:102CD00017F80020FFF714F80020FFF711F8C120C3
:102CE000FFF71AF82020FFF70BF80020FFF708F88D
:102CF0005420FFF705F80020FFF702F8FF20FEF749
:102D0000FFFF0020FEF7FCFFC220FFF705F80A20B6
:102D1000FEF7F6FF0020FEF7F3FF0420FEF7F0FFBA
:102D20000020FEF7EDFFC320FEF7F6FF3C20FEF784
:102D3000E7FF0020FEF7E4FF3A20FEF7E1FF002066
:102D4000FEF7DEFF3920FEF7DBFF0020FEF7D8FF9D
:102D50003720FEF7D5FF0020FEF7D2FF3C20FEF71C
:102D6000CFFF0020FEF7CCFF3620FEF7C9FF002082
:102D7000FEF7C6FF3220FEF7C3FF0020FEF7C0FFBC
:102D80002F20FEF7BDFF0020FEF7BAFF2C20FEF734
:102D9000B7FF0020FEF7B4FF2920FEF7B1FF0020A7
:102DA000FEF7AEFF2620FEF7ABFF0020FEF7A8FFE0
:102DB0002420FEF7A5FF0020FEF7A2FF2420FEF747
:102DC0009FFF0020FEF79CFF2320FEF799FF0020C5
:102DD000FEF796FF3C20FEF793FF0020FEF790FFE2
:102DE0003620FEF78DFF0020FEF78AFF3220FEF727
:102DF00087FF0020FEF784FF2F20FEF781FF0020D1
:102E0000FEF77EFF2C20FEF77BFF0020FEF778FF09
:102E10002920FEF775FF0020FEF772FF2620FEF73F
:102E20006FFF0020FEF76CFF2420FEF769FF0020F3
:102E3000FEF766FF2420FEF763FF0020FEF760FF29
:102E40002320FEF75DFF0020FEF75AFFC420FEF7A7
:102E500063FF6220FEF754FF0020FEF751FF0520BC
:102E6000FEF74EFF0020FEF74BFF8420FEF748FFE1
:102E70000020FEF745FFF020FEF742FF0020FEF79E
:102E80003FFF1820FEF73CFF0020FEF739FFA4208B
:102E9000FEF736FF0020FEF733FF1820FEF730FF65
:102EA0000020FEF72DFF5020FEF72AFF0020FEF73E
:102EB00027FF0C20FEF724FF0020FEF721FF17203C
:102EC000FEF71EFF0020FEF71BFF9520FEF718FF00
:102ED0000020FEF715FFF320FEF712FF0020FEF79B
:102EE0000FFFE620FEF70CFF0020FEF709FFC520CC
:102EF000FEF712FF3220FEF703FF0020FEF700FF6F
:102F00004420FEF7FDFE0020FEF7FAFE6520FEF7E6
:102F1000F7FE0020FEF7F4FE7620FEF7F1FE00201B
:102F2000FEF7EEFE8820FEF7EBFE0020FEF7E8FE3F
:102F3000C620FEF7F1FE2020FEF7E2FE0020FEF79D
:102F4000DFFE1720FEF7DCFE0020FEF7D9FE012091
:102F5000FEF7D6FE0020FEF7D3FEC720FEF7DCFE0C
:102F60000020FEF7CDFE0020FEF7CAFE0020FEF78F
:102F7000C7FE0020FEF7C4FEC820FEF7CDFE0020ED
:102F8000FEF7BEFE0020FEF7BBFE0020FEF7B8FEF7
:102F90000020FEF7B5FEC920FEF7BEFE0020FEF7BA
:102FA000AFFE0020FEF7ACFE0020FEF7A9FE0020D9
:102FB000FEF7A6FE0020FEF7A3FE0020FEF7A0FE0F
:102FC0000020FEF79DFE0020FEF79AFE0020FEF78F
:102FD00097FE0020FEF794FE0020FEF791FE0020F1
:102FE000FEF78EFE0020FEF78BFE0020FEF788FE27
:102FF0000020FEF785FE0020FEF782FEE020FEF7AF
:103000008BFE1620FEF77CFE0020FEF779FE1C20CA
:10301000FEF776FE0020FEF773FE2120FEF770FE1D
:103020000020FEF76DFE3620FEF76AFE0020FEF758
:1030300067FE4620FEF764FE0020FEF761FE522088
:10304000FEF75EFE0020FEF75BFE6420FEF758FEF2
:103050000020FEF755FE7A20FEF752FE0020FEF714
:103060004FFE8B20FEF74CFE0020FEF749FE992014
:10307000FEF746FE0020FEF743FEA820FEF740FEC6
:103080000020FEF73DFEB920FEF73AFE0020FEF7D5
:1030900037FEC420FEF734FE0020FEF731FECA20C2
:1030A000FEF72EFE0020FEF72BFED220FEF728FEB4
:1030B0000020FEF725FED920FEF722FE0020FEF7B5
:1030C0001FFEE020FEF71CFE0020FEF719FEF32095
:1030D000FEF716FE0020FEF713FEE120FEF71CFEB1
:1030E0001620FEF70DFE0020FEF70AFE1C20FEF75C
:1030F00007FE0020FEF704FE2220FEF701FE00205E
:10310000FEF7FEFD3620FEF7FBFD0020FEF7F8FD82
:103110004520FEF7F5FD0020FEF7F2FD5220FEF7F8
:10312000EFFD0020FEF7ECFD6420FEF7E9FD002036
:10313000FEF7E6FD7A20FEF7E3FD0020FEF7E0FD56
:103140008B20FEF7DDFD0020FEF7DAFD9920FEF76B
:10315000D7FD0020FEF7D4FDA820FEF7D1FD00200A
:10316000FEF7CEFDB920FEF7CBFD0020FEF7C8FD2F
:10317000C420FEF7C5FD0020FEF7C2FDCA20FEF701
:10318000BFFD0020FEF7BCFDD220FEF7B9FD0020F8
:10319000FEF7B6FDD820FEF7B3FD0020FEF7B0FD28
:1031A000E020FEF7ADFD0020FEF7AAFDF320FEF7BC
:1031B000A7FD0020FEF7A4FDE220FEF7ADFD0520EF
:1031C000FEF79EFD0020FEF79BFD0B20FEF798FD0D
:1031D0000020FEF795FD1B20FEF792FD0020FEF774
:1031E0008FFD3420FEF78CFD0020FEF789FD442082
:1031F000FEF786FD0020FEF783FD4F20FEF780FDE1
:103200000020FEF77DFD6120FEF77AFD0020FEF72D
:1032100077FD7920FEF774FD0020FEF771FD882010
:10322000FEF76EFD0020FEF76BFD9720FEF768FDB0
:103230000020FEF765FDA620FEF762FD0020FEF7E8
:103240005FFDB720FEF75CFD0020FEF759FDC220B0
:10325000FEF756FD0020FEF753FDC720FEF750FD98
:103260000020FEF74DFDD120FEF74AFD0020FEF7BD
:1032700047FDD620FEF744FD0020FEF741FDDD208E
:10328000FEF73EFD0020FEF73BFDF320FEF738FD84
:103290000020FEF735FDE320FEF73EFD0520FEF79A
:1032A0002FFD0020FEF72CFD0A20FEF729FD00204F
:1032B000FEF726FD1C20FEF723FD0020FEF720FD73
:1032C0003320FEF71DFD0020FEF71AFD4420FEF717
:1032D00017FD0020FEF714FD5020FEF711FD002021
:1032E000FEF70EFD6220FEF70BFD0020FEF708FD45
:1032F0007820FEF705FD0020FEF702FD8820FEF78E
:10330000FFFC0020FEF7FCFC9720FEF7F9FC0020F4
:10331000FEF7F6FCA620FEF7F3FC0020FEF7F0FC1B
:10332000B720FEF7EDFC0020FEF7EAFCC220FEF716
:10333000E7FC0020FEF7E4FCC720FEF7E1FC0020DC
:10334000FEF7DEFCD120FEF7DBFC0020FEF7D8FC08
:10335000D520FEF7D5FC0020FEF7D2FCDD20FEF7DD
:10336000CFFC0020FEF7CCFCF320FEF7C9FC0020C8
:10337000FEF7C6FCE420FEF7CFFC0120FEF7C0FC00
:103380000020FEF7BDFC0120FEF7BAFC0020FEF78E
:10339000B7FC0220FEF7B4FC0020FEF7B1FC2A20A7
:1033A000FEF7AEFC0020FEF7ABFC3C20FEF7A8FCCD
:1033B0000020FEF7A5FC4B20FEF7A2FC0020FEF744
:1033C0009FFC5D20FEF79CFC0020FEF799FC74201A
:1033D000FEF796FC0020FEF793FC8420FEF790FC9D
:1033E0000020FEF78DFC9320FEF78AFC0020FEF7FC
:1033F00087FCA220FEF784FC0020FEF781FCB320AE
:10340000FEF77EFC0020FEF77BFCBE20FEF778FC7A
:103410000020FEF775FCC420FEF772FC0020FEF7CA
:103420006FFCCD20FEF76CFC0020FEF769FCD3207A
:10343000FEF766FC0020FEF763FCDD20FEF760FC73
:103440000020FEF75DFCF320FEF75AFC0020FEF79B
:1034500057FCE520FEF760FC0020FEF751FC002041
:10346000FEF74EFC0020FEF74BFC0020FEF748FC68
:103470000220FEF745FC0020FEF742FC2920FEF763
:103480003FFC0020FEF73CFC3C20FEF739FC00200E
:10349000FEF736FC4B20FEF733FC0020FEF730FC35
:1034A0005D20FEF72DFC0020FEF72AFC7420FEF7BD
:1034B00027FC0020FEF724FC8420FEF721FC0020DE
:1034C000FEF71EFC9320FEF71BFC0020FEF718FC05
:1034D000A220FEF715FC0020FEF712FCB320FEF739
:1034E0000FFC0020FEF70CFCBE20FEF709FC0020BC
:1034F000FEF706FCC420FEF703FC0020FEF700FCEC
:10350000CD20FEF7FDFB0020FEF7FAFBD320FEF7EF
:10351000F7FB0020FEF7F4FBDC20FEF7F1FB0020B8
:10352000FEF7EEFBF320FEF7EBFB0020FEF7E8FBD7
:10353000E620FEF7F1FB1120FEF7E2FB0020FEF78C
:10354000DFFB3420FEF7DCFB0020FEF7D9FB562022
:10355000FEF7D6FB0020FEF7D3FB7620FEF7D0FB6C
:103560000020FEF7CDFB7720FEF7CAFB0020FEF718
:10357000C7FB6620FEF7C4FB0020FEF7C1FB8820D6
:10358000FEF7BEFB0020FEF7BBFB9920FEF7B8FB61
:103590000020FEF7B5FBBB20FEF7B2FB0020FEF7D4
:1035A000AFFB9920FEF7ACFB0020FEF7A9FB6620DD
:1035B000FEF7A6FB0020FEF7A3FB5520FEF7A0FBBD
:1035C0000020FEF79DFB5520FEF79AFB0020FEF73A
:1035D00097FB4520FEF794FB0020FEF791FB43206C
:1035E000FEF78EFB0020FEF78BFB4420FEF788FBE6
:1035F0000020FEF785FBE720FEF78EFB3220FEF76A
:103600007FFB0020FEF77CFB5520FEF779FB0020B6
:10361000FEF776FB7620FEF773FB0020FEF770FBCB
:103620006620FEF76DFB0020FEF76AFB6720FEF7C1
:1036300067FB0020FEF764FB6720FEF761FB0020BC
:10364000FEF75EFB8720FEF75BFB0020FEF758FBD2
:103650009920FEF755FB0020FEF752FBBB20FEF73A
:103660004FFB0020FEF74CFB9920FEF749FB0020A2
:10367000FEF746FB7720FEF743FB0020FEF740FBFA
:103680004420FEF73DFB0020FEF73AFB5620FEF7F4
:1036900037FB0020FEF734FB2320FEF731FB002030
:1036A000FEF72EFB3320FEF72BFB0020FEF728FB56
:1036B0004520FEF725FB0020FEF722FBE820FEF761
:1036C0002BFB0020FEF71CFB0020FEF719FB9920C6
:1036D000FEF716FB0020FEF713FB8720FEF710FB1A
:1036E0000020FEF70DFB8820FEF70AFB0020FEF706
:1036F00007FB7720FEF704FB0020FEF701FB6620A6
:10370000FEF7FEFA0020FEF7FBFA8820FEF7F8FA33
:103710000020FEF7F5FAAA20FEF7F2FA0020FEF7E5
:10372000EFFABB20FEF7ECFA0020FEF7E9FA992049
:10373000FEF7E6FA0020FEF7E3FA6620FEF7E0FA6D
:103740000020FEF7DDFA5520FEF7DAFA0020FEF73A
:10375000D7FA5520FEF7D4FA0020FEF7D1FA44201C
:10376000FEF7CEFA0020FEF7CBFA4420FEF7C8FAA7
:103770000020FEF7C5FA5520FEF7C2FA0020FEF73A
:10378000BFFAE920FEF7C8FAAA20FEF7B9FA00202E
:10379000FEF7B6FA0020FEF7B3FA0020FEF7B0FA03
:1037A0000020FEF7B9FAAA20FEF7AAFACF20FEF70A
:1037B000B3FA0020FEF7A4FA0020FEF7A1FA0020D9
:1037C000FEF79EFA0020FEF79BFA0020FEF798FA1B
:1037D0000020FEF795FA0020FEF792FA0020FEF78F
:1037E0008FFA0020FEF78CFA0020FEF789FA0020FD
:1037F000FEF786FA0020FEF783FA0020FEF780FA33
:103800000020FEF77DFA0020FEF77AFA0020FEF78E
:1038100077FA0020FEF774FAF020FEF77DFA002018
:10382000FEF76EFA5020FEF76BFA0020FEF768FAFA
:103830000020FEF765FA0020FEF762FAF320FEF79B
:103840006BFA0020FEF75CFAF920FEF765FA062015
:10385000FEF756FA1020FEF753FA2920FEF750FA29
:103860000020FEF74DFA3A20FEF756FA5520FEF7F3
:1038700047FA1120FEF750FA6420FDF76EF8292070
:10388000FEF74AFA3520FEF747FA0020FEF738FA2D
:103890005120FEF741FAFF20FEF732FA5320FEF7DF
:1038A0003BFA2C20FEF72CFA5520FEF735FA822041
:1038B000FEF726FA2C20FEF72FFA02F0E9B8FE48B0
:1038C000808845F2105188427ED155214FF47040D6
:1038D000FEF738FAAA214FF20100FEF733FA52211F
:1038E0004FF20200FEF72EFA08214FF20300FEF716
:1038F00029FA01214FF20400FEF724FA0D214FF4BA
:103900003040FEF71FFA0D214BF20100FEF71AFAC4
:103910000D214BF20200FEF715FA34214FF4364028
:10392000FEF710FA34214BF20160FEF70BFA342156
:103930004BF20260FEF706FA0D214FF43140FEF71C
:1039400001FA0D214BF20110FEF7FCF90D214BF2AB
:103950000210FEF7F7F934214FF43740FEF7F2F981
:1039600034214BF20170FEF7EDF934214BF2027075
:10397000FEF7E8F900214FF43240FEF7E3F90021A9
:103980004BF20120FEF7DEF900214BF20220FEF798
:10399000D9F924214FF43840FEF7D4F924214BF60D
:1039A0000100FEF7CFF924214BF60200FEF7CAF919
:1039B00001214FF43F40FEF7C5F90F214FF433408A
:1039C000FEF7C0F90F2100E0FEE34BF20130FEF7F5
:1039D000B9F90F214BF20230FEF7B4F934214FF45C
:1039E0003940FEF7AFF934214BF60110FEF7AAF982
:1039F00034214BF60210FEF7A5F908214FF43540AB
:103A0000FEF7A0F908214BF20150FEF79BF90821BF
:103A10004BF20250FEF796F903214FF44240FEF7B5
:103A200091F924214FF43A40FEF78CF924214BF60A
:103A30000120FEF787F924214BF60220FEF782F9D8
:103A400000214FF43C40FEF77DF978214BF6014010
:103A5000FEF778F900214BF60240FEF773F90021DA
:103A60004FF43D40FEF76EF978214BF60150FEF71A
:103A700069F900214BF60250FEF764F900214FF47A
:103A80003E40FEF75FF964214BF60160FEF75AF9FC
:103A900000214FF45140FEF755F933214DF201104A
:103AA000FEF750F900214DF20210FEF74BF93421D8
:103AB0004DF20310FEF746F900214DF20410FEF717
:103AC00041F93A214DF20510FEF73CF900214DF283
:103AD0000610FEF737F94A214DF20710FEF732F9CA
:103AE00000214DF20810FEF72DF95C214DF209106E
:103AF000FEF728F900214DF20A10FEF723F9812183
:103B00004DF20B10FEF71EF900214DF20C10FEF7DE
:103B100019F9A6214DF20D10FEF714F900214DF20E
:103B20000E10FEF70FF9E5214DF20F10FEF70AF91E
:103B300001214DF21010FEF705F913214DF211107D
:103B4000FEF700F901214DF21210FEF7FBF85421A7
:103B50004DF21310FEF7F6F801214DF21410FEF7A6
:103B6000F1F882214DF21510FEF7ECF801214DF22B
:103B70001610FEF7E7F8CA214DF21710FEF7E2F82B
:103B800002214DF21810FEF7DDF800214DF2191058
:103B9000FEF7D8F802214DF21A10FEF7D3F80121F2
:103BA0004DF21B10FEF7CEF802214DF21C10FEF76D
:103BB000C9F834214DF21D10FEF7C4F802214DF270
:103BC0001E10FEF7BFF867214DF21F10FEF7BAF87E
:103BD00002214DF22010FEF7B5F884214DF221109C
:103BE000FEF7B0F802214DF22210FEF7ABF8A42147
:103BF0004DF22310FEF7A6F802214DF22410FEF735
:103C0000A1F8B7214DF22510FEF79CF802214DF2E4
:103C10002610FEF797F8CF214DF22710FEF792F805
:103C200002214DF22810FEF78DF8DE214DF2291009
:103C3000FEF788F802214DF22A10FEF783F8F221F0
:103C40004DF22B10FEF77EF802214DF22C10FEF7FC
:103C500079F8FE214DF22D10FEF774F803214DF294
:103C60002E10FEF76FF810214DF22F10FEF76AF8B4
:103C700003214DF23010FEF765F833214DF231107B
:103C8000FEF760F803214DF23210FEF75BF86D216C
:103C90004DF23310FEF756F800214FF45240FEF774
:103CA00051F833214DF20120FEF74CF800214DF27E
:103CB0000220FEF747F801E03C00002034214DF2DD
:103CC0000320FEF73FF800214DF20420FEF73AF8FA
:103CD0003A214DF20520FEF735F800214DF206207D
:103CE000FEF730F84A214DF20720FEF72BF80021AD
:103CF0004DF20820FEF726F85C214DF20920FEF770
:103D000021F800214DF20A20FEF71CF881214DF226
:103D10000B20FEF717F800214DF20C20FEF712F8E9
:103D2000A6214DF20D20FEF70DF800214DF20E20D8
:103D3000FEF708F8E5214DF20F20FEF703F8012108
:103D40004DF21020FDF7FEFF13214DF21120FDF77B
:103D5000F9FF01214DF21220FDF7F4FF54214DF23D
:103D60001320FDF7EFFF01214DF21420FDF7EAFFCC
:103D700082214DF21520FDF7E5FF01214DF21620BD
:103D8000FDF7E0FFCA214DF21720FDF7DBFF02210E
:103D90004DF21820FDF7D6FF00214DF21920FDF756
:103DA000D1FF02214DF21A20FDF7CCFF01214DF287
:103DB0001B20FDF7C7FF02214DF21C20FDF7C2FFBB
:103DC00034214DF21D20FDF7BDFF02214DF21E20D2
:103DD000FDF7B8FF67214DF21F20FDF7B3FF022169
:103DE0004DF22020FDF7AEFF84214DF22120FDF79A
:103DF000A9FF02214DF22220FDF7A4FFA4214DF2DC
:103E00002320FDF79FFF02214DF22420FDF79AFFAA
:103E1000B7214DF22520FDF795FF02214DF2262016
:103E2000FDF790FFCF214DF22720FDF78BFF0221F8
:103E30004DF22820FDF786FFDE214DF22920FDF707
:103E400081FF02214DF22A20FDF77CFFF2214DF285
:103E50002B20FDF777FF02214DF22C20FDF772FF9A
:103E6000FE214DF22D20FDF76DFF03214DF22E2096
:103E7000FDF768FF10214DF22F20FDF763FF0321AE
:103E80004DF23020FDF75EFF33214DF23120FDF77A
:103E900059FF03214DF23220FDF754FF6D214DF201
:103EA0003320FDF74FFF00214FF45340FDF74AFF49
:103EB00033214DF20130FDF745FF00214DF2023074
:103EC000FDF740FF34214DF20330FDF73BFF0021A9
:103ED0004DF20430FDF736FF3A214DF20530FDF783
:103EE00031FF00214DF20630FDF72CFF4A214DF243
:103EF0000730FDF727FF00214DF20830FDF722FFC4
:103F00005C214DF20930FDF71DFF00214DF20A3012
:103F1000FDF718FF81214DF20B30FDF713FF002153
:103F20004DF20C30FDF70EFFA6214DF20D30FDF7DE
:103F300009FF00214DF20E30FDF704FFE5214DF29F
:103F40000F30FDF7FFFE01214DF21030FDF7FAFEB4
:103F500013214DF21130FDF7F5FE01214DF2123023
:103F6000FDF7F0FE54214DF21330FDF7EBFE012179
:103F70004DF21430FDF7E6FE82214DF21530FDF7CB
:103F8000E1FE01214DF21630FDF7DCFECA214DF2B3
:103F90001730FDF7D7FE02214DF21830FDF7D2FEA3
:103FA00000214DF21930FDF7CDFE02214DF21A30FD
:103FB000FDF7C8FE01214DF21B30FDF7C3FE0221C3
:103FC0004DF21C30FDF7BEFE34214DF21D30FDF7E1
:103FD000B9FE02214DF21E30FDF7B4FE67214DF20D
:103FE0001F30FDF7AFFE02214DF22030FDF7AAFE93
:103FF00084214DF22130FDF7A5FE02214DF2223041
:10400000FDF7A0FEA4214DF22330FDF79BFE022117
:104010004DF22430FDF796FEB7214DF22530FDF725
:1040200091FE02214DF22630FDF78CFECF214DF29C
:104030002730FDF787FE02214DF22830FDF782FE82
:10404000DE214DF22930FDF77DFE02214DF22A30AE
:10405000FDF778FEF2214DF22B30FDF773FE0221C1
:104060004DF22C30FDF76EFEFE214DF22D30FDF7A6
:1040700069FE03214DF22E30FDF764FE10214DF252
:104080002F30FDF75FFE03214DF23030FDF75AFE71
:1040900033214DF23130FDF755FE03214DF2323020
:1040A000FDF750FE6D214DF23330FDF74BFE002140
:1040B0004FF45440FDF746FE33214DF20140FDF729
:1040C00041FE00214DF20240FDF73CFE34214DF24D
:1040D0000340FDF737FE00214DF20440FDF732FEAC
:1040E0003A214DF20540FDF72DFE00214DF206402C
:1040F000FDF728FE4A214DF20740FDF723FE00217F
:104100004DF20840FDF71EFE5C214DF20940FDF71F
:1041100019FE00214DF20A40FDF714FE81214DF2F7
:104120000B40FDF70FFE00214DF20C40FDF70AFE9B
:10413000A6214DF20D40FDF705FE00214DF20E4087
:10414000FDF700FEE5214DF20F40FDF7FBFD0121DB
:104150004DF21040FDF7F6FD13214DF21140FDF731
:10416000F1FD01214DF21240FDF7ECFD54214DF21D
:104170001340FDF7E7FD01214DF21440FDF7E2FD8C
:1041800082214DF21540FDF7DDFD01214DF2164073
:10419000FDF7D8FDCA214DF21740FDF7D3FD0221EE
:1041A0004DF21840FDF7CEFD00214DF21940FDF70C
:1041B000C9FD02214DF21A40FDF7C4FD01214DF267
:1041C0001B40FDF7BFFD00E004E302214DF21C405F
:1041D000FDF7B8FD34214DF21D40FDF7B3FD02217E
:1041E0004DF21E40FDF7AEFD67214DF21F40FDF779
:1041F000A9FD02214DF22040FDF7A4FD84214DF2DE
:104200002140FDF79FFD02214DF22240FDF79AFD6E
:10421000A4214DF22340FDF795FD02214DF22440EB
:10422000FDF790FDB7214DF22540FDF78BFD0221F2
:104230004DF22640FDF786FDCF214DF22740FDF7D8
:1042400081FD02214DF22840FDF77CFDDE214DF27B
:104250002940FDF777FD02214DF22A40FDF772FD5E
:10426000F2214DF22B40FDF76DFD02214DF22C4065
:10427000FDF768FDFE214DF22D40FDF763FD0321A2
:104280004DF22E40FDF75EFD10214DF22F40FDF75F
:1042900059FD03214DF23040FDF754FD33214DF21D
:1042A0003140FDF74FFD03214DF23240FDF74AFD4D
:1042B0006D214DF23340FDF745FD00214FF455408F
:1042C000FDF740FD33214DF20150FDF73BFD00218C
:1042D0004DF20250FDF736FD34214DF20350FDF74B
:1042E00031FD00214DF20450FDF72CFD3A214DF235
:1042F0000550FDF727FD00214DF20650FDF722FD88
:104300004A214DF20750FDF71DFD00214DF20850E6
:10431000FDF718FD5C214DF20950FDF713FD00215A
:104320004DF20A50FDF70EFD81214DF20B50FDF7C5
:1043300009FD00214DF20C50FDF704FDA6214DF2C0
:104340000D50FDF7FFFC00214DF20E50FDF7FAFC79
:10435000E5214DF20F50FDF7F5FC01214DF2105013
:10436000FDF7F0FC13214DF21150FDF7EBFC01219C
:104370004DF21250FDF7E6FC54214DF21350FDF7BB
:10438000E1FC01214DF21450FDF7DCFC82214DF2DD
:104390001550FDF7D7FC01214DF21650FDF7D2FC68
:1043A000CA214DF21750FDF7CDFC02214DF21850F5
:1043B000FDF7C8FC00214DF21950FDF7C3FC0221A6
:1043C0004DF21A50FDF7BEFC01214DF21B50FDF7D6
:1043D000B9FC02214DF21C50FDF7B4FC34214DF222
:1043E0001D50FDF7AFFC02214DF21E50FDF7AAFC57
:1043F00067214DF21F50FDF7A5FC02214DF2205020
:10440000FDF7A0FC84214DF22150FDF79BFC022119
:104410004DF22250FDF796FCA4214DF22350FDF7FA
:1044200091FC02214DF22450FDF78CFCB7214DF296
:104430002550FDF787FC02214DF22650FDF782FC46
:10444000CF214DF22750FDF77DFC02214DF228507F
:10445000FDF778FCDE214DF22950FDF773FC0221B7
:104460004DF22A50FDF76EFCF2214DF22B50FDF774
:1044700069FC02214DF22C50FDF764FCFE214DF247
:104480002D50FDF75FFC03214DF22E50FDF75AFC35
:1044900010214DF22F50FDF755FC03214DF2305005
:1044A000FDF750FC33214DF23150FDF74BFC032159
:1044B0004DF23250FDF746FC6D214DF23350FDF7C1
:1044C00041FC00214FF45640FDF73CFC33214DF2F6
:1044D0000160FDF737FC00214DF20260FDF732FC70
:1044E00034214DF20360FDF72DFC00214DF20460F4
:1044F000FDF728FC3A214DF20560FDF723FC002171
:104500004DF20660FDF71EFC4A214DF20760FDF7F3
:1045100019FC00214DF20860FDF714FC5C214DF2FE
:104520000960FDF70FFC00214DF20A60FDF70AFC5F
:1045300081214DF20B60FDF705FC00214DF20C606E
:10454000FDF700FCA6214DF20D60FDF7FBFB0021FD
:104550004DF20E60FDF7F6FBE5214DF20F60FDF721
:10456000F1FB01214DF21060FDF7ECFB13214DF240
:104570001160FDF7E7FB01214DF21260FDF7E2FB50
:1045800054214DF21360FDF7DDFB01214DF2146063
:10459000FDF7D8FB82214DF21560FDF7D3FB012119
:1045A0004DF21660FDF7CEFBCA214DF21760FDF704
:1045B000C9FB02214DF21860FDF7C4FB00214DF24A
:1045C0001960FDF7BFFB02214DF21A60FDF7BAFB3F
:1045D00001214DF21B60FDF7B5FB02214DF21C607D
:1045E000FDF7B0FB34214DF21D60FDF7ABFB02215E
:1045F0004DF21E60FDF7A6FB67214DF21F60FDF72F
:10460000A1FB02214DF22060FDF79CFB84214DF2BD
:104610002160FDF797FB02214DF22260FDF792FB2E
:10462000A4214DF22360FDF78DFB02214DF22460A1
:10463000FDF788FBB7214DF22560FDF783FB0221D2
:104640004DF22660FDF77EFBCF214DF22760FDF78E
:1046500079FB02214DF22860FDF774FBDE214DF25B
:104660002960FDF76FFB02214DF22A60FDF76AFB1E
:10467000F2214DF22B60FDF765FB02214DF22C601B
:10468000FDF760FBFE214DF22D60FDF75BFB032182
:104690004DF22E60FDF756FB10214DF22F60FDF715
:1046A00051FB03214DF23060FDF74CFB33214DF2FD
:1046B0003160FDF747FB03214DF23260FDF742FB0D
:1046C0006D214DF23360FDF73DFB55214FF47040F5
:1046D000FDF738FBAA214FF20100FDF733FB522111
:1046E0004FF20200FDF72EFB08214FF20300FDF709
:1046F00029FB00214FF20400FDF724FBCC214FF4ED
:104700003140FDF71FFB00214BF20110FDF71AFBB2
:1047100005214FF43640FDF715FB70214FF437406B
:10472000FDF710FB70214BF20170FDF70BFB01212F
:104730004FF43840FDF706FB03214BF60100FDF76F
:1047400001FB03214BF60200FDF7FCFA03214BF6B7
:104750000300FDF7F7FA02214FF43C40FDF7F2FAAF
:1047600000214BF60140FDF7EDFA00214BF6024027
:10477000FDF7E8FAD0214FF44940FDF7E3FA0221B2
:104780004CF60110FDF7DEFA50214CF60210FDF751
:10479000D9FA50214CF60310FDF7D4FA50214CF60B
:1047A0000410FDF7CFFA00214FF45450FDF7CAFA78
:1047B00055214FF46850FDF7C5FA4FF48850FDF7C6
:1047C000ABFA7820FCF723F94FF42450FDF7A4FA54
:1047D00001F05EB9FE48808849F2253188427DD1DA
:1047E00047F6F001E520FDF7ADFA4FF480710120A6
:1047F000FDF7A8FA4FF4E0610220FDF7A3FA41F2B9
:1048000030010320FDF79EFA00210420FDF79AFAFB
:1048100040F202210820FDF795FA00210920FDF75A
:1048200091FA00210A20FDF78DFA00210C20FDF7F6
:1048300089FA00210D20FDF785FA00210F20FDF7F0
:1048400081FA00211020FDF77DFA07211120FDF7E4
:1048500079FA00211220FDF775FA00211320FDF7E7
:1048600071FA00210720FDF76DFA41F290611020E6
:10487000FDF768FA40F227211120FDF763FA9D2128
:104880001220FDF75FFA4FF4C8511320FDF75AFAD2
:1048900025212920FDF756FA0D212B20FDF752FA8C
:1048A00007213020FDF74EFA40F203313120FDF7A9
:1048B00049FA03213220FDF745FA40F2062135205E
:1048C000FDF740FA08213620FDF73CFA40F2064198
:1048D0003720FDF737FA4FF4417100E058E03820F7
:1048E000FDF730FA07213920FDF72CFA40F202617A
:1048F0003C20FDF727FA08213D20FDF723FA00218F
:104900005020FDF71FFAEF215120FDF71BFA00217F
:104910005220FDF717FA40F23F115320FDF712FA2B
:104920004FF427416020FDF70DFA01216120FDF7CA
:1049300009FA00216A20FDF705FA00218020FDF721
:1049400001FA00218120FDF7FDF900218220FDF709
:10495000F9F900218320FDF7F5F900218420FDF706
:10496000F1F900218520FDF7EDF910219020FDF7E8
:10497000E9F94FF4C0619220FDF7E4F940F23311F8
:104980000720FDF7DFF922210020FDF7DBF91FE703
:104990008F48808849F2283188427DD141F28F01C9
:1049A000EC20FDF7CFF941F23421EF20FDF7CAF9F1
:1049B0004FF480710120FDF7C5F94FF4E06102204A
:1049C000FDF7C0F941F230010320FDF7BBF90021EA
:1049D0000420FDF7B7F940F202210820FDF7B2F9F3
:1049E00000210920FDF7AEF900210A20FDF7AAF900
:1049F00001210C20FDF7A6F900210D20FDF7A2F9F9
:104A000000210F20FDF79EF900211020FDF79AF9F3
:104A100007211120FDF796F900211220FDF792F9E8
:104A200000211320FDF78EF901210720FDF78AF9F7
:104A30003220FBF792FF41F290411020FDF782F9FE
:104A400040F227211120FDF77DF93220FBF785FF89
:104A50008A211220FDF776F93220FBF77EFF4FF412
:104A6000D0511320FDF76EF906212920FDF76AF9D0
:104A70000D212B20FDF766F93220FBF76EFF002198
:104A80002020FDF75FF900212120FDF75BF932209E
:104A9000FBF763FF002100E075E03020FDF752F9DD
:104AA00040F204613120FDF74DF940F2053132202A
:104AB000FDF748F900213520FDF744F940F609419A
:104AC0003620FDF73FF94FF401713720FDF73AF931
:104AD00040F201313820FDF735F940F207713920F5
:104AE000FDF730F900213C20FDF72CF940F60A21B2
:104AF0003D20FDF727F93220FBF72FFF0021502042
:104B0000FDF720F9EF215120FDF71CF9002152207B
:104B1000FDF718F940F23F115320FDF713F94FF458
:104B200027416020FDF70EF901216120FDF70AF908
:104B300000216A20FDF706F900218020FDF702F927
:104B400000218120FDF7FEF800218220FDF7FAF810
:104B500000218320FDF7F6F800218420FDF7F2F80C
:104B600000218520FDF7EEF810219020FDF7EAF8EE
:104B70004FF4C0619220FDF7E5F840F233110720B1
:104B8000FDF7E0F824E61248808849F22031884297
:104B90007ED100210846FDF7D5F84FF48071012041
:104BA000FDF7D0F84FF4E0610220FDF7CBF841F2B9
:104BB00030010320FDF7C6F800210420FDF7C2F8FC
:104BC00040F202210820FDF7BDF80021092001E094
:104BD0003C000020FDF7B6F800210A20FDF7B2F8EE
:104BE00001210C20FDF7AEF800210D20FDF7AAF8F9
:104BF00000210F20FDF7A6F83220FBF7AEFE40F2B1
:104C000001110720FDF79EF83220FBF7A6FE4FF4B6
:104C100086511020FDF796F807211120FDF792F834
:104C20004FF488711220FDF78DF84FF43061132096
:104C3000FDF788F800212920FDF784F844F21001DF
:104C40002B20FDF77FF800215020FDF77BF8EF21A6
:104C50005120FDF777F800215220FDF773F840F25C
:104C60003F115320FDF76EF84FF41C516020FDF703
:104C700069F801216120FDF765F800216A20FDF740
:104C800061F800218020FDF75DF80021812000E01F
:104C900030E0FDF757F800218220FDF753F800219E
:104CA0008320FDF74FF800218420FDF74BF8002109
:104CB0008520FDF747F810219020FDF743F80021EB
:104CC0009220FDF73FF801219320FDF73BF84FF4C8
:104CD00088719520FDF736F800219720FDF732F80E
:104CE00000219820FDF72EF840F273110720FDF700
:104CF00029F86DE5FE48808849F2313188427DD13E
:104D000041F21401E720FDF71DF84FF480710120F6
:104D1000FDF718F84FF400710220FDF713F841F287
:104D200038010320FDF70EF840F202210820FDF7BC
:104D300009F800210920FDF705F800210A20FDF7F8
:104D400001F800210C20FCF7FDFF00210D20FCF7ED
:104D5000F9FF00210F20FCF7F5FF00211020FCF7E0
:104D6000F1FF07211120FCF7EDFF00211220FCF7D5
:104D7000E9FF00211320FCF7E5FFC820FBF7EDFD5C
:104D800041F290611020FCF7DDFF40F22721112055
:104D9000FCF7D8FF3220FBF7E0FD0C211220FCF7D6
:104DA000D1FF3220FBF7D9FD4FF400611320FCF74F
:104DB000C9FF11212920FCF7C5FF0B212B20FCF78F
:104DC000C1FF3220FBF7C9FD00212020FCF7BAFF0C
:104DD00040F23F112120FCF7B5FF00213020FCF705
:104DE000B1FF4FF483713120FCF7ACFF002132207A
:104DF000FCF7A8FF4FF40171352000E064E0FCF7F8
:104E0000A1FF41F20A613620FCF79CFF40F20771D6
:104E10003720FCF797FF4FF483713820FCF792FF9F
:104E200040F207713920FCF78DFF40F202413C202F
:104E3000FCF788FF40F60F413D20FCF783FF00217F
:104E40005020FCF77FFFEF215120FCF77BFF002172
:104E50005220FCF777FF40F23F115320FCF772FF1E
:104E60004FF41C516020FCF76DFF01216120FCF71D
:104E700069FF00216A20FCF765FF00218020FCF714
:104E800061FF00218120FCF75DFF00218220FCF7FB
:104E900059FF00218320FCF755FF00218420FCF7F7
:104EA00051FF00218520FCF74DFF10219020FCF7D9
:104EB00049FF4FF4C0619220FCF744FF40F23311E8
:104EC0000720FCF73FFF83E48948808845F20841CA
:104ED00088427DD14FF480710120FCF733FF4FF4FD
:104EE000E0610220FCF72EFF41F230010320FCF7C5
:104EF00029FF00210420FCF725FF40F207210820AC
:104F0000FCF720FF00210920FCF71CFF00210A20EC
:104F1000FCF718FF00210C20FCF714FF00210D20E6
:104F2000FCF710FF00210F20FCF70CFF1420FBF70B
:104F300014FD41F2B0611020FCF704FF01211120A3
:104F4000FCF700FF01211720FCF7FCFE4FF49C71D9
:104F50001220FCF7F7FE4FF400611320FCF7F2FE7D
:104F600009212920FCF7EEFE09212A20FCF7EAFEA0
:104F70000021A420FCF7E6FE00215020FCF7E2FE11
:104F8000EF215120FCF7DEFE00215220FCF7DAFE73
:104F900040F23F115320FCF7D5FE4FF41C51602026
:104FA000FCF7D0FE01216120FCF7CCFE00216A2035
:104FB000FCF7C8FE00218020FCF7C4FE0021812000
:104FC000FCF7C0FE00218220FCF7BCFE002100E0BF
:104FD00024E08320FCF7B6FE00218420FCF7B2FE1B
:104FE00000218520FCF7AEFE13219020FCF7AAFEDD
:104FF00000219220FCF7A6FE03219320FCF7A2FEDD
:105000004FF488719520FCF79DFE40F27311072044
:10501000FCF798FE3220FBF7A0FCB8E43448808807
:1050200041F2055188427DD100210720FCF78AFE1C
:105030003220FBF792FC4FF48E711220FCF782FEB7
:105040000121A420FCF77EFE0F210820FCF77AFE48
:1050500008210A20FCF776FE08210D20FCF772FEDD
:1050600040F207713020FCF76DFE07213120FCF77C
:1050700069FE40F203613220FCF764FE4FF4E06108
:105080003320FCF75FFE40F202213420FCF75AFE89
:1050900002213520FCF756FE41F60F713620FCF751
:1050A00051FE40F207713720FCF74CFE00213820FA
:1050B000FCF748FE00213920FCF744FE40F207715E
:1050C0003A20FCF73FFE00213B20FCF73BFE072186
:1050D0003C20FCF737FE00213D20FCF733FE322058
:1050E000FBF73BFC01210720FCF72CFE012101E02E
:1050F0003C0000201720FCF725FE3220FBF72DFC9A
:105100004FF4BD511020FCF71DFE40F21721112075
:10511000FCF718FE4FF48F711220FCF713FE4FF4CA
:10512000706100E098E01320FCF70CFE00212A20BB
:10513000FCF708FE0A212920FCF704FE4FF49F71BA
:105140001220FCF7FFFD00215020FCF7FBFDEF21B2
:105150005120FCF7F7FD00215220FCF7F3FD40F24F
:105160003F115320FCF7EEFD4FF41C516020FCF77B
:10517000E9FD01216120FCF7E5FD00216A20FCF733
:10518000E1FD00218020FCF7DDFD00218120FCF7FE
:10519000D9FD00218220FCF7D5FD00218320FCF7FA
:1051A000D1FD00218420FCF7CDFD00218520FCF7F6
:1051B000C9FD13219020FCF7C5FD4FF440719220EA
:1051C000FCF7C0FD05219320FCF7BCFD00219520D4
:1051D000FCF7B8FD00219720FCF7B4FD00219820D2
:1051E000FCF7B0FD4FF480710120FCF7ABFD4FF4EC
:1051F000E0610220FCF7A6FD41F238010320FCF734
:10520000A1FD00210420FCF79DFD00210C20FCF7EE
:1052100099FD00210F20FCF795FD00212020FCF7CF
:1052200091FD00212120FCF78DFD21210720FCF7B5
:1052300089FD1420FBF791FB61210720FCF782FD1B
:105240001420FBF78AFB40F273110720FCF77AFD6C
:105250001420FBF782FB95E4FE4880884BF2055151
:1052600088427CD100210846FCF76CFD00210846ED
:10527000FCF768FD00210846FCF764FD00210846A4
:10528000FCF760FD0121A420FCF75CFD1420FBF776
:1052900064FB4FF41C516020FCF754FD40F20221E6
:1052A0000820FCF74FFD4FF405713020FCF74AFD54
:1052B00043F215713120FCF745FD40F204613220C4
:1052C000FCF740FD40F616613320FCF73BFD42F24F
:1052D00011213420FCF736FD4FF4A8513520FCF79E
:1052E00031FD48F207513620FCF72CFD41F2074111
:1052F0003720FCF727FD41F203413820FCF722FD5F
:1053000020213920FCF71EFD1A219020FCF71AFD00
:1053100000211020FCF716FD07211120FCF712FDDB
:1053200000211220FCF70EFD00211320FCF70AFDDE
:105330001420FBF712FB4FF4E6611020FCF702FD8E
:1053400040F237111120FCF7FDFC1420FBF705FBA0
:105350004FF4DC711220FCF7F5FC142000E085E02E
:10536000FBF7FBFA4FF470611320FCF7EBFC802194
:105370002A20FCF7E7FC48212920FCF7E3FC142055
:10538000FBF7EBFA4FF480710120FCF7DBFC4FF4E4
:10539000E0610220FCF7D6FC41F238010320FCF763
:1053A000D1FC40F202210820FCF7CCFC00210A20AD
:1053B000FCF7C8FC00210C20FCF7C4FC00210D20E8
:1053C000FCF7C0FC30210E20FCF7BCFC0021502073
:1053D000FCF7B8FCEF215120FCF7B4FC002152206F
:1053E000FCF7B0FC40F23F115320FCF7ABFC4FF44C
:1053F0001C516020FCF7A6FC01216120FCF7A2FCF7
:1054000000216A20FCF79EFC11219020FCF79AFCF9
:105410004FF4C0619220FCF795FC40F202419320CA
:10542000FCF790FC02219420FCF78CFC1420FBF785
:1054300094FA01210720FCF785FC1420FBF78DFA74
:1054400061210720FCF77EFC40F273110720FCF776
:1054500079FC00212020FCF775FC00212120FCF7BD
:1054600071FC22210020FCF76DFC11E37948808853
:105470004CF2055188427CD100210846FCF762FCC1
:1054800000210846FCF75EFC1420FBF766FA0021B9
:105490000846FCF757FC00210846FCF753FC0021A6
:1054A0000846FCF74FFC00210846FCF74BFC0121A5
:1054B000A420FCF747FC1420FBF74FFA4FF41C51D3
:1054C0006020FCF73FFC40F606010820FCF73AFCA0
:1054D00040F203713020FCF735FC01213120FCF74C
:1054E00031FC04213220FCF72DFC4FF48171332074
:1054F000FCF728FC4FF440713420FCF723FC40F209
:1055000003113520FCF71EFC1F213620FCF71AFC86
:1055100040F203713720FCF715FC01213820FCF71D
:1055200011FC04213920FCF70DFC15219020FCF71B
:1055300009FC4FF482611020FCF704FC40F2472183
:105540001120FCF7FFFB4FF4DE711220FCF7FAFB91
:105550004FF460611320FCF7F5FB7820FBF7FDF9B1
:105560004FF480710120FCF7EDFB4FF40071022035
:1055700000E052E0FCF7E6FB41F230010320FCF7CB
:10558000E1FB08210A20FCF7DDFB00210C20FCF7E1
:10559000D9FB20210E20FCF7D5FB00210F20FCF7C2
:1055A000D1FB00212020FCF7CDFB00212120FCF7BE
:1055B000C9FB3D212A20FCF7C5FB1420FBF7CDF9E0
:1055C0002D212920FCF7BEFB00215020FCF7BAFB5F
:1055D0004DF2EF015120FCF7B5FB00215220FCF702
:1055E000B1FB40F23F115320FCF7ACFB00216120DE
:1055F000FCF7A8FB00216A20FCF7A4FB4FF44071E4
:105600009220FCF79FFB05219320FCF79BFB4FF4B6
:1056100080710720FCF796FB3AE20E48808844F23E
:10562000315188427ED101210020FCF78BFB0A20FA
:10563000FBF793F941F228611020FCF783FB0E2160
:105640001220FCF77FFB40F639211320FCF77AFB90
:105650000A2001E03C000020FBF77FF940211120E7
:10566000FCF770FB50211520FCF76CFB0A20FBF7C0
:1056700074F91E211220FCF765FB0A20FBF76DF977
:105680004FF4B1511020FCF75DFB42F63921132095
:10569000FCF758FB0A20FBF760F94FF480710120FA
:1056A000FCF750FB4FF440710220FCF74BFB41F23A
:1056B00038010320FCF746FB40F202210820FCF7EA
:1056C00041FB08210A20FCF73DFB00213020FCF7BC
:1056D00039FB40F202413120FCF734FB4FF4837177
:1056E0003220FCF72FFB40F203513320FCF72AFB5A
:1056F0004FF482713420FCF725FB40F20131352054
:10570000FCF720FB40F207713620FCF71BFB40F250
:1057100005313720FCF716FB4FF402713820FCF7F7
:1057200011FB00E03EE040F60B713920FCF70AFB6C
:1057300002214120FCF706FB4FF41C516020FCF7CE
:1057400001FB01216120FCF7FDFA4FF40471902068
:10575000FCF7F8FA4FF485719220FCF7F3FA042174
:105760009320FCF7EFFA4FF48071A020FCF7EAFADF
:1057700001210720FCF7E6FA21210720FCF7E2FAD5
:1057800023210720FCF7DEFA33210720FCF7DAFAA1
:1057900040F233110720FCF7D5FA0021A020FCF7D6
:1057A000D1FA75E1C148808844F2355188427CD1F4
:1057B00030211520FCF7C6FA10219A20FCF7C2FA16
:1057C00020211120FCF7BEFA43F228411020FCF7FB
:1057D000B9FA02211220FCF7B5FA41F23801132080
:1057E000FCF7B0FA2820FBF7B8F812210846FCF7BE
:1057F000A9FA2820FBF7B1F843F220411020FCF76A
:10580000A1FA43F238011320FCF79CFA4620FBF77B
:10581000A4F800213020FCF795FA40F20241312033
:10582000FCF790FA40F207313220FCF78BFA4FF484
:1058300041713320FCF786FA04213420FCF782FA08
:1058400040F201413520FCF77DFA40F20771362025
:10585000FCF778FA40F205313720FCF773FA4FF481
:10586000C2613820FCF76EFA4FF4C2613920FCF7B0
:1058700069FA4FF480710120FCF764FA4FF440712B
:105880000220FCF75FFA41F230010320FCF75AFADC
:1058900040F608010820FCF755FA08210A20FCF719
:1058A00051FA4FF41C51602000E033E0FCF74AFA53
:1058B00001216120FCF746FA4FF49F719020FCF71C
:1058C00041FA4FF480719220FCF73CFA4FF480715A
:1058D0009320FCF737FA4FF44051A020FCF732FA3E
:1058E0001021A320FCF72EFA01210720FCF72AFA49
:1058F00021210720FCF726FA23210720FCF722FAB2
:1059000033210720FCF71EFA40F233110720FCF781
:1059100019FABDE06548808841F663118842F8D1E4
:10592000E220FCF7F9F91D20FCF7EAF90220FCF768
:10593000E7F90420FCF7E4F96420FBF768F8E020BD
:10594000FCF7EAF90120FCF7DBF90A20FBF705F880
:10595000E020FCF7E1F90320FCF7D2F90C20FAF77C
:10596000FCFF0120FCF7D8F90A20FAF7F6FFE62041
:10597000FCF7D2F92F20FCF7C3F9FF20FCF7C0F9A0
:10598000FF20FCF7BDF9B020FCF7C6F92020FCF79A
:10599000B7F90020FCF7B4F90120FCF7B1F940F2A7
:1059A0003F10FCF7ADF90120FCF7AAF940F2DF1037
:1059B000FCF7A6F90020FCF7A3F9B420FCF7ACF93A
:1059C0000220FCF79DF940F23F20FCF799F90020F6
:1059D000FCF796F92E20FCF793F90020FCF790F9DC
:1059E0000020FCF78DF90020FCF78AF90020FCF775
:1059F00087F9B620FCF790F90220FCF781F94FF403
:105A00000370FCF77DF90020FCF77AF91720FCF70A
:105A100077F91520FCF774F90020FCF771F90020E4
:105A2000FCF76EF9F020FCF777F90320FCF768F932
:105A30002920FCF771F9D020FCF76EF90020FCF763
:105A40005FF9BE20FCF768F90520FCF759F9FE2044
:105A5000FCF756F90120FCF753F90020FCF750F948
:105A60000020FCF74DF90020FCF74AF9B820FCF7BC
:105A700053F90320FCF744F90120FCF741F9BA205F
:105A8000FCF74AF90120FCF73BF96420FBF73AFCEC
:105A90000020FBF7B9FA01210548FBF7CAF94FF6D8
:105AA000FF70FBF77BFA1FB000BD00003C00002038
:105AB000000C014000B585B001210420FCF7A6F9D7
:105AC0000020049018208DF813004FF40070ADF8FA
:105AD000100003208DF8120004A91848FBF7CAF83B
